{
  "_format": "hh-sol-artifact-1",
  "contractName": "WETH9",
  "sourceName": "src/contracts/WETH9.sol",
  "abi": [
    {
      "anonymous": false,
      "inputs": [
        {
          "indexed": true,
          "internalType": "address",
          "name": "dst",
          "type": "address"
        },
        {
          "indexed": false,
          "internalType": "uint256",
          "name": "wad",
          "type": "uint256"
        }
      ],
      "name": "Deposit",
      "type": "event"
    },
    {
      "anonymous": false,
      "inputs": [
        {
          "indexed": true,
          "internalType": "address",
          "name": "src",
          "type": "address"
        },
        {
          "indexed": false,
          "internalType": "uint256",
          "name": "wad",
          "type": "uint256"
        }
      ],
      "name": "Withdrawal",
      "type": "event"
    },
    {
      "inputs": [
        {
          "internalType": "address",
          "name": "",
          "type": "address"
        }
      ],
      "name": "balanceOf",
      "outputs": [
        {
          "internalType": "uint256",
          "name": "",
          "type": "uint256"
        }
      ],
      "stateMutability": "view",
      "type": "function"
    },
    {
      "inputs": [],
      "name": "decimals",
      "outputs": [
        {
          "internalType": "uint8",
          "name": "",
          "type": "uint8"
        }
      ],
      "stateMutability": "view",
      "type": "function"
    },
    {
      "inputs": [],
      "name": "name",
      "outputs": [
        {
          "internalType": "string",
          "name": "",
          "type": "string"
        }
      ],
      "stateMutability": "view",
      "type": "function"
    },
    {
      "inputs": [],
      "name": "symbol",
      "outputs": [
        {
          "internalType": "string",
          "name": "",
          "type": "string"
        }
      ],
      "stateMutability": "view",
      "type": "function"
    },
    {
      "inputs": [
        {
          "internalType": "uint256",
          "name": "wad",
          "type": "uint256"
        }
      ],
      "name": "withdraw",
      "outputs": [],
      "stateMutability": "nonpayable",
      "type": "function"
    },
    {
      "stateMutability": "payable",
      "type": "receive"
    }
  ],
  "bytecode": "0x60806040526040518060400160405280600d81526020017f577261707065642045746865720000000000000000000000000000000000000081525060009081610048919061030c565b506040518060400160405280600481526020017f57455448000000000000000000000000000000000000000000000000000000008152506001908161008d919061030c565b506012600260006101000a81548160ff021916908360ff1602179055503480156100b657600080fd5b506103de565b600081519050919050565b7f4e487b7100000000000000000000000000000000000000000000000000000000600052604160045260246000fd5b7f4e487b7100000000000000000000000000000000000000000000000000000000600052602260045260246000fd5b6000600282049050600182168061013d57607f821691505b6020821081036101505761014f6100f6565b5b50919050565b60008190508160005260206000209050919050565b60006020601f8301049050919050565b600082821b905092915050565b6000600883026101b87fffffffffffffffffffffffffffffffffffffffffffffffffffffffffffffffff8261017b565b6101c2868361017b565b95508019841693508086168417925050509392505050565b6000819050919050565b6000819050919050565b60006102096102046101ff846101da565b6101e4565b6101da565b9050919050565b6000819050919050565b610223836101ee565b61023761022f82610210565b848454610188565b825550505050565b600090565b61024c61023f565b61025781848461021a565b505050565b5b8181101561027b57610270600082610244565b60018101905061025d565b5050565b601f8211156102c05761029181610156565b61029a8461016b565b810160208510156102a9578190505b6102bd6102b58561016b565b83018261025c565b50505b505050565b600082821c905092915050565b60006102e3600019846008026102c5565b1980831691505092915050565b60006102fc83836102d2565b9150826002028217905092915050565b610315826100bc565b67ffffffffffffffff81111561032e5761032d6100c7565b5b6103388254610125565b61034382828561027f565b600060209050601f8311600181146103765760008415610364578287015190505b61036e85826102f0565b8655506103d6565b601f19841661038486610156565b60005b828110156103ac57848901518255600182019150602085019450602081019050610387565b868310156103c957848901516103c5601f8916826102d2565b8355505b6001600288020188555050505b505050505050565b61083b806103ed6000396000f3fe60806040526004361061004e5760003560e01c806306fdde03146100fe5780632e1a7d4d14610129578063313ce5671461015257806370a082311461017d57806395d89b41146101ba576100f9565b366100f95734600360003373ffffffffffffffffffffffffffffffffffffffff1673ffffffffffffffffffffffffffffffffffffffff16815260200190815260200160002060008282546100a291906104d5565b925050819055503373ffffffffffffffffffffffffffffffffffffffff167fe1fffcc4923d04b559f4d29a8bfc6cda04eb5b0d3c460751c2402c5c5cc9109c346040516100ef9190610518565b60405180910390a2005b600080fd5b34801561010a57600080fd5b506101136101e5565b60405161012091906105c3565b60405180910390f35b34801561013557600080fd5b50610150600480360381019061014b9190610616565b610273565b005b34801561015e57600080fd5b506101676103e3565b604051610174919061065f565b60405180910390f35b34801561018957600080fd5b506101a4600480360381019061019f91906106d8565b6103f6565b6040516101b19190610518565b60405180910390f35b3480156101c657600080fd5b506101cf61040e565b6040516101dc91906105c3565b60405180910390f35b600080546101f290610734565b80601f016020809104026020016040519081016040528092919081815260200182805461021e90610734565b801561026b5780601f106102405761010080835404028352916020019161026b565b820191906000526020600020905b81548152906001019060200180831161024e57829003601f168201915b505050505081565b80600360003373ffffffffffffffffffffffffffffffffffffffff1673ffffffffffffffffffffffffffffffffffffffff1681526020019081526020016000205410156102f5576040517f08c379a00000000000000000000000000000000000000000000000000000000081526004016102ec906107b1565b60405180910390fd5b80600360003373ffffffffffffffffffffffffffffffffffffffff1673ffffffffffffffffffffffffffffffffffffffff168152602001908152602001600020600082825461034491906107d1565b925050819055503373ffffffffffffffffffffffffffffffffffffffff166108fc829081150290604051600060405180830381858888f19350505050158015610391573d6000803e3d6000fd5b503373ffffffffffffffffffffffffffffffffffffffff167f7fcf532c15f0a6db0bd6d0e038bea71d30d808c7d98cb3bf7268a95bf5081b65826040516103d89190610518565b60405180910390a250565b600260009054906101000a900460ff1681565b60036020528060005260406000206000915090505481565b6001805461041b90610734565b80601f016020809104026020016040519081016040528092919081815260200182805461044790610734565b80156104945780601f1061046957610100808354040283529160200191610494565b820191906000526020600020905b81548152906001019060200180831161047757829003601f168201915b505050505081565b6000819050919050565b7f4e487b7100000000000000000000000000000000000000000000000000000000600052601160045260246000fd5b60006104e08261049c565b91506104eb8361049c565b9250828201905080821115610503576105026104a6565b5b92915050565b6105128161049c565b82525050565b600060208201905061052d6000830184610509565b92915050565b600081519050919050565b600082825260208201905092915050565b60005b8381101561056d578082015181840152602081019050610552565b60008484015250505050565b6000601f19601f8301169050919050565b600061059582610533565b61059f818561053e565b93506105af81856020860161054f565b6105b881610579565b840191505092915050565b600060208201905081810360008301526105dd818461058a565b905092915050565b600080fd5b6105f38161049c565b81146105fe57600080fd5b50565b600081359050610610816105ea565b92915050565b60006020828403121561062c5761062b6105e5565b5b600061063a84828501610601565b91505092915050565b600060ff82169050919050565b61065981610643565b82525050565b60006020820190506106746000830184610650565b92915050565b600073ffffffffffffffffffffffffffffffffffffffff82169050919050565b60006106a58261067a565b9050919050565b6106b58161069a565b81146106c057600080fd5b50565b6000813590506106d2816106ac565b92915050565b6000602082840312156106ee576106ed6105e5565b5b60006106fc848285016106c3565b91505092915050565b7f4e487b7100000000000000000000000000000000000000000000000000000000600052602260045260246000fd5b6000600282049050600182168061074c57607f821691505b60208210810361075f5761075e610705565b5b50919050565b7f496e73756666696369656e742062616c616e6365000000000000000000000000600082015250565b600061079b60148361053e565b91506107a682610765565b602082019050919050565b600060208201905081810360008301526107ca8161078e565b9050919050565b60006107dc8261049c565b91506107e78361049c565b92508282039050818111156107ff576107fe6104a6565b5b9291505056fea264697066735822122056c1111901154abf9f1adc6f73bfa9ea5a11d83c51451dea0877b060b3b76c9e64736f6c634300081c0033",
  "linkReferences": {},
  "deployedLinkReferences": {}
}